:04000000FEEF3FF0E0
:0708000000042406000100C2
:10080800C0EC06F0000E93EC05F0110E066E3C0EDF
:10081800056ECB0EE82EFED7052EFCD7062EFAD78E
:1008280000F013B01AEF04F01EEF04F0056A052A71
:100838001FEF04F0056A13B624EF04F028EF04F064
:10084800080E066E29EF04F0066A13B82EEF04F0BE
:1008580032EF04F0100E076E33EF04F0076A13BA94
:1008680038EF04F03CEF04F0200E086E3DEF04F082
:10087800086A13BC42EF04F046EF04F0400E096E1C
:1008880047EF04F0096A13BE4CEF04F050EF04F090
:10089800800E0A6E51EF04F00A6A0A500910081017
:1008A800071006100510176E12B05DEF04F061EF27
:1008B80004F0056A052A62EF04F0056A12B267EFD0
:1008C80004F06BEF04F0020E066E6CEF04F0066A9B
:1008D80012B471EF04F075EF04F0040E076E76EFB2
:1008E80004F0076A12B67BEF04F07FEF04F0080EFD
:1008F800086E80EF04F0086A12B885EF04F089EFFB
:1009080004F0100E096E8AEF04F0096A12BA8FEF2C
:1009180004F093EF04F0200E0A6E94EF04F00A6AD4
:1009280012BC99EF04F09DEF04F0400E0B6E9EEFA1
:1009380004F00B6A12BEA3EF04F0A7EF04F0800ED8
:100948000C6EA8EF04F00C6A0C500B100A1009107A
:100958000810071006100510166ECAAAB6EF04F0A4
:10096800B8EF04F0BCEF04F0F8EC04F0B1EF04F0D9
:10097800010E026EFF0E5AEC06F00D6E0D04D8A49F
:10098800C8EF04F0CAEF04F0D0EF04F0010E026ED5
:10099800410E5AEC06F00D6E420E0D18D8A4D7EF92
:1009A80004F0D9EF04F0DEEF04F0010E026E5A0EE7
:1009B8005AEC06F0010E026E17505AEC06F0000EC3
:1009C800026E16505AEC06F0BA88CABAEEEF04F076
:1009D800F0EF04F0B1EF04F06A0EE82EFED700D075
:1009E800B1EF04F0FEEF3FF0CAACFDEF04F0FFEF0B
:1009F80004F002EF05F0128203EF05F01292CAAE7E
:100A080008EF05F00AEF05F00DEF05F012800EEF84
:100A180005F01290CCAE13EF05F015EF05F018EFC6
:100A280005F0128619EF05F01292CCAC1EEF05F016
:100A380020EF05F023EF05F0128424EF05F012945F
:100A4800CBAC29EF05F02BEF05F02EEF05F0128C5B
:100A58002FEF05F0129CCBAE34EF05F036EF05F022
:100A680039EF05F0128A3AEF05F0129ACBA83FEF5A
:100A780005F041EF05F044EF05F0128845EF05F069
:100A88001298CBAA4AEF05F04CEF05F04FEF05F0AE
:100A9800128E50EF05F0129ECCA255EF05F057EFDD
:100AA80005F05AEF05F013805BEF05F01390CCA02A
:100AB80060EF05F062EF05F065EF05F0138666EF6D
:100AC80005F01396CBA66BEF05F06DEF05F070EF10
:100AD80005F0138871EF05F01398CBA076EF05F0B9
:100AE80078EF05F07BEF05F0138C7CEF05F0139C95
:100AF800CBA281EF05F083EF05F086EF05F0138EAA
:100B080087EF05F0139ECBA48CEF05F08EEF05F070
:100B180091EF05F0138A92EF05F0139A1200026E16
:100B28003D0114BF9AEF05F09CEF05F0F3EF05F0D7
:100B38000250050D010EF324F66E080EF420F76E30
:100B480008006F00D7FF14FD0250050D010EF326B3
:100B5800000EF422010EF324F66E080EF420F76E50
:100B680008006F00D7FF15FD0250050D020EF32691
:100B7800000EF422010EF324F66E080EF420F76E30
:100B88000800F5500309166F000E1C6F0250050D82
:100B9800030EF326000EF422010EF324F66E080E5F
:100BA800F420F76E08006F00D7FF19FD0250050DFD
:100BB800040EF326000EF422010EF324F66E080E3E
:100BC800F420F76E08006F00D4FF01F001460146DB
:100BD8000146C4500118F70B0118C46E148F120097
:100BE800100EBA6E000EBB6E000EBC6EEF0EC26E1B
:100BF800C368DF0EC46E000E3A01606F000E506FBE
:100C08000F0E406F000E816F5169C00E416FC70E05
:100C1800616F000E5A6F000E5B6F000E6A6F000E58
:100C28006B6F000E426F000E526F000E626F4369C9
:100C380053696369446954696469080E846F130EC3
:100C4800DE6F050EE06F1F0E156F140EDF6F1200BA
:100C5800000E3E01DE6F000EDF6F000EE06F000E2B
:100C6800E16F000EE46F000EE56F000EEA6F000EF4
:100C7800EC6F000EF16F000EF36F000EF46F000EB4
:100C8800F56F000EF66F000EF76F000EF96F000E8D
:100C9800FA6F000EFB6F000EFC6F000EFD6F000E6A
:100CA800FE6F1F0EFF6F840EF86F1200036EBA8876
:100CB800035076EC06F0046E3D0117850250D8B457
:100CC80068EF06F06AEF06F074EF06F06A0EE82E99
:100CD800FED700D0BA980D0EE82EFED700F0BA88DD
:100CE80004501200016E010E3D01126F600007F002
:100CF80011FD3901A2A983EF06F085EF06F07DEF1B
:100D080006F03D0110511200000E3901C06F000EAF
:100D1800C16F000EC26F000EC36F000EC46F000ECD
:100D2800C56F000EC66F000EC76F120000EE0EF002
:100D38000A0EEE6AE806FDE1000EF86E080EF76E80
:100D4800000104EF04F0040E3D01146F240E156F2A
:100D5800060E166F000E1C6F000E196FC486120067
:100D6800600E3901D96F000EDB6F000EDD6F080EC3
:100D7800DF6F000EDE6F120088EC06F0F4EC05F071
:0E0D8800B4EC06F02CEC06F0A7EC06F012001E
:047FFC009AEF06F002
:020000040020DA
:10000000FF0FFF0FFF0FFF0FFF0FFF0FFF0FFF0F80
:020000040030CA
:0A0000008CFFF7FF9FFFFFFFFFFFDB
:00000001FF
