:020000040000FA
:04000000FEEF3FF0E0
:0708000000042402000100C6
:10080800026E3D0114BF0BEF04F00DEF04F064EF2E
:1008180004F00250050D010EF324F66E080EF420C4
:10082800F76E08006F00D7FF14FD0250050D010E8A
:10083800F326000EF422010EF324F66E080EF420BF
:10084800F76E08006F00D7FF15FD0250050D020E68
:10085800F326000EF422010EF324F66E080EF4209F
:10086800F76E0800F5500309166F000E1C6F025052
:10087800050D030EF326000EF422010EF324F66E86
:10088800080EF420F76E08006F00D7FF19FD02501C
:10089800050D040EF326000EF422010EF324F66E65
:1008A800080EF420F76E08006F00D4FF01F001462F
:1008B80001460146C4500118F70B0118C46E148F85
:1008C800120066EC05F0000E04EC04F0110E066E42
:1008D8003C0E056ECB0EE82EFED7052EFCD7062E55
:1008E800FAD700F0CAAA7BEF04F07DEF04F07FEF9F
:1008F80004F076EF04F0010E026EFF0EF2EC04F045
:100908000A6E0A04D8A48BEF04F08DEF04F093EF7D
:1009180004F0010E026E410EF2EC04F00A6E420E73
:100928000A18D8A49AEF04F09CEF04F0A1EF04F0A1
:10093800010E026E5A0EF2EC04F0010E026E850EE4
:10094800F2EC04F0000E026EFC0EF2EC04F0BA8831
:10095800CABAB1EF04F0B3EF04F076EF04F06A0E10
:10096800E82EFED700D076EF04F0FEEF3FF0100E31
:10097800BA6E000EBB6E000EBC6EEF0EC26EC36880
:10098800DF0EC46E000E3A01606F000E506F0F0E3E
:10099800406F000E816F000E516F000E416F000E08
:1009A800616F000E5A6F000E5B6F000E6A6F000ECB
:1009B8006B6F000E426F000E526F000E626F43693C
:1009C80053696369446954696469080E846F130E36
:1009D800DE6F1F0E156F140EDF6F1200036EBA88DC
:1009E800035029EC05F0046E3D0117850250D8B478
:1009F80000EF05F002EF05F00CEF05F06A0EE82EA7
:100A0800FED700D0BA980D0EE82EFED700F0BA88AF
:100A180004501200DE0EF66E0A0EF76E000EF86E27
:100A280009006F00D4FF11F009006F00D4FF12F025
:100A3800106A0F6A0E6A0D6A0C6A0B6A000EF86E6D
:100A4800080EF76E000165EF04F0016E010E3D011E
:100A5800126F600007F011FD3901A2A936EF05F009
:100A680038EF05F030EF05F03D0110511200000E8F
:100A78003901C06F000EC16F000EC26F000EC36F48
:100A8800000EC46F000EC56F000EC66F000EC76F54
:100A98001200040E3D01146F240E156F020E166F1E
:100AA800000E1C6F000E196FC4861200600E39010B
:100AB800D96F000EDB6F000EDD6F080EDF6F000EC2
:100AC800DE6F12003BEC05F0BBEC04F05AEC05F0CD
:080AD8004DEC05F01200FC8555
:047FFC000EEF05F08F
:020000040020DA
:10000000FF0FFF0FFF0FFF0FFF0FFF0FFF0FFF0F80
:020000040030CA
:0A0000008CFFF7FF9FFFFFFFFFFFDB
:00000001FF
