:04000000FEEF3FF0E0
:0708000000042407000100C1
:10080800CAAC09EF04F00BEF04F00EEF04F0058218
:100818000FEF04F00592CAAE14EF04F016EF04F0DF
:1008280019EF04F005801AEF04F00590CCAE1FEF25
:1008380004F021EF04F024EF04F0058625EF04F01E
:100848000592CCAC2AEF04F02CEF04F02FEF04F063
:10085800058430EF04F00594CBAC35EF04F037EFA6
:1008680004F03AEF04F0058C3BEF04F0059CCBAEA6
:1008780040EF04F042EF04F045EF04F0058A46EF3C
:1008880004F0059ACBA84BEF04F04DEF04F050EFBD
:1008980004F0058851EF04F00598CBAA56EF04F050
:1008A80058EF04F05BEF04F0058E5CEF04F0059E52
:1008B800CCA261EF04F063EF04F066EF04F0068069
:1008C80067EF04F00690CCA06CEF04F06EEF04F034
:1008D80071EF04F0068672EF04F00696CBA677EF68
:1008E80004F079EF04F07CEF04F006887DEF04F063
:1008F8000698CBA082EF04F084EF04F087EF04F0B1
:10090800068C88EF04F0069CCBA28DEF04F08FEFE5
:1009180004F092EF04F0068E93EF04F0069ECBA449
:1009280098EF04F09AEF04F09DEF04F0068A9EEF2A
:1009380004F0069ACCA4A3EF04F0A5EF04F0A9EF05
:1009480004F0010E0B6EABEF04F0000E0B6E06B058
:10095800B0EF04F0B4EF04F00C6A0C2AB5EF04F021
:100968000C6A06B6BAEF04F0BEEF04F0080E0D6E7E
:10097800BFEF04F00D6A06B8C4EF04F0C8EF04F046
:10098800100E0E6EC9EF04F00E6A06BACEEF04F030
:10099800D2EF04F0200E0F6ED3EF04F00F6A06BCFE
:1009A800D8EF04F0DCEF04F0400E106EDDEF04F039
:1009B800106A06BEE2EF04F0E6EF04F0800E116E56
:1009C800E7EF04F0116A115010100F100E100D10FF
:1009D8000C100A6E05B0F3EF04F0F7EF04F00C6AA0
:1009E8000C2AF8EF04F00C6A05B2FDEF04F001EFF1
:1009F80005F0020E0D6E02EF05F00D6A05B407EF63
:100A080005F00BEF05F0040E0E6E0CEF05F00E6A04
:100A180005B611EF05F015EF05F0080E0F6E16EF8D
:100A280005F00F6A05B81BEF05F01FEF05F0100E73
:100A3800106E20EF05F0106A05BA25EF05F029EFD2
:100A480005F0200E116E2AEF05F0116A05BC2FEF94
:100A580005F033EF05F0400E126E34EF05F0126A20
:100A680005BE39EF05F03DEF05F0800E136E3EEF41
:100A780005F0136A13501210111010100F100E10F9
:100A88000D100C10096E12000D6E3D0114BF4FEFD2
:100A980005F051EF05F0A8EF05F00D50050D010E1A
:100AA800F324F66E080EF420F76E08006F00D7FFE7
:100AB80014FD0D50050D010EF326000EF422010E53
:100AC800F324F66E080EF420F76E08006F00D7FFC7
:100AD80015FD0D50050D020EF326000EF422010E31
:100AE800F324F66E080EF420F76E0800F55003099B
:100AF800166F000E1C6F0D50050D030EF326000E29
:100B0800F422010EF324F66E080EF420F76E0800A6
:100B18006F00D7FF19FD0D50050D040EF326000ECA
:100B2800F422010EF324F66E080EF420F76E080086
:100B38006F00D4FF0CF00C460C460C46C4500C1841
:100B4800F70B0C18C46E148F1200D5EC06F0000ECB
:100B580048EC05F0110E156E3C0E146ECB0EE82E07
:100B6800FED7142EFCD7152EFAD700F0068406827D
:100B7800CAAAC1EF05F0C3EF05F0C7EF05F004EC12
:100B880004F0BCEF05F0010E0D6EFF0E7CEC06F0D4
:100B9800166E1604D8A4D3EF05F0D5EF05F0E9EFEB
:100BA80005F0010E0D6E410E7CEC06F0010E0D6E87
:100BB8005A0E7CEC06F0010E0D6E0A507CEC06F025
:100BC800000E0D6E09507CEC06F0BA88CABAEFEF39
:100BD80005F0F1EF05F0BCEF05F06A0EE82EFED740
:100BE80000D0BCEF05F0FEEF3FF0D00EBA6EBB6848
:100BF800C70EBC6EEF0EC26EC368DF0EC46E000E69
:100C08003A01606F000E506F0F0E406F000E816F3B
:100C18005169C00E416FC70E616F000E5A6F000E0A
:100C28005B6F000E6A6F000E6B6F000E426F000E56
:100C3800526F000E626F436953696369446954696E
:100C48006469080E846F130EDE6F050EE06F1F0EC9
:100C5800156F140EDF6F1200000E3E01DE6F000EDE
:100C6800DF6F000EE06F000EE16F000EE46F000E04
:100C7800E56F000EEA6F000EEC6F000EF16F000ECC
:100C8800F36F000EF46F000EF56F000EF66F000E96
:100C9800F76F000EF96F000EFA6F000EFB6F000E73
:100CA800FC6F000EFD6F000EFE6F1F0EFF6F840EAF
:100CB800F86F1200C00EF66E0D0EF76E000EF86E8D
:100CC80000EE17F010EE04F009006F00D7FFEEFFFA
:100CD800E550E150F9E100EE01F00B0EEE6AE8068E
:100CE800FDE1000EF86E080EF76E0001A9EF05F0A1
:100CF8000E6EBA880E5098EC06F00F6E3D011785FF
:100D08000D50D8B48AEF06F08CEF06F096EF06F097
:100D18006A0EE82EFED700D0BA980D0EE82EFED740
:100D280000D0BA880F5012000C6E010E3D01126FF0
:100D3800600033F011FD3901A2A9A5EF06F0A7EF75
:100D480006F09FEF06F03D0110511200000E390128
:100D5800C06F000EC16F000EC26F000EC36F000E91
:100D6800C46F000EC56F000EC66F000EC76F12006D
:100D7800040E3D01146F240E156F070E166F000E3A
:100D88001C6F000E196FC4861200600E3901D96FEE
:100D9800000EDB6F000EDD6F080EDF6F000EDE6FDA
:100DA8001200AAEC06F0F9EC05F0C9EC06F030ECFC
:0C0DB80006F0BCEC06F012008080808089
:047FFC005EEF06F03E
:020000040020DA
:10000000FF0FFF0FFF0FFF0FFF0FFF0FFF0FFF0F80
:020000040030CA
:0A0000008CFFF7FF9FFFFFFFFFFFDB
:00000001FF
